{
  "contractName": "Tickets",
  "abi": [
    {
      "constant": true,
      "inputs": [
        {
          "name": "",
          "type": "address"
        },
        {
          "name": "",
          "type": "uint256"
        }
      ],
      "name": "owners",
      "outputs": [
        {
          "name": "festival",
          "type": "bytes32"
        },
        {
          "name": "owner",
          "type": "address"
        }
      ],
      "payable": false,
      "stateMutability": "view",
      "type": "function"
    },
    {
      "constant": false,
      "inputs": [
        {
          "name": "name",
          "type": "bytes32"
        },
        {
          "name": "maxTickets",
          "type": "uint256"
        },
        {
          "name": "price",
          "type": "uint256"
        },
        {
          "name": "owner",
          "type": "address"
        }
      ],
      "name": "createFestival",
      "outputs": [],
      "payable": false,
      "stateMutability": "nonpayable",
      "type": "function"
    },
    {
      "constant": true,
      "inputs": [
        {
          "name": "",
          "type": "bytes32"
        }
      ],
      "name": "festivals",
      "outputs": [
        {
          "name": "name",
          "type": "bytes32"
        },
        {
          "name": "maxTickets",
          "type": "uint256"
        },
        {
          "name": "soldTickets",
          "type": "uint256"
        },
        {
          "name": "price",
          "type": "uint256"
        },
        {
          "name": "owner",
          "type": "address"
        }
      ],
      "payable": false,
      "stateMutability": "view",
      "type": "function"
    },
    {
      "inputs": [],
      "payable": false,
      "stateMutability": "nonpayable",
      "type": "constructor"
    }
  ],
  "bytecode": "0x6060604052341561000f57600080fd5b61038d8061001e6000396000f300606060405260043610610057576000357c0100000000000000000000000000000000000000000000000000000000900463ffffffff1680639b3e27871461005c578063a1212285146100ed578063f749a0c514610145575b600080fd5b341561006757600080fd5b61009c600480803573ffffffffffffffffffffffffffffffffffffffff169060200190919080359060200190919050506101d0565b6040518083600019166000191681526020018273ffffffffffffffffffffffffffffffffffffffff1673ffffffffffffffffffffffffffffffffffffffff1681526020019250505060405180910390f35b34156100f857600080fd5b61014360048080356000191690602001909190803590602001909190803590602001909190803573ffffffffffffffffffffffffffffffffffffffff16906020019091905050610230565b005b341561015057600080fd5b61016a60048080356000191690602001909190505061030b565b6040518086600019166000191681526020018581526020018481526020018381526020018273ffffffffffffffffffffffffffffffffffffffff1673ffffffffffffffffffffffffffffffffffffffff1681526020019550505050505060405180910390f35b6001602052816000526040600020818154811015156101eb57fe5b9060005260206000209060020201600091509150508060000154908060010160009054906101000a900473ffffffffffffffffffffffffffffffffffffffff16905082565b60a06040519081016040528085600019168152602001848152602001600081526020018381526020018273ffffffffffffffffffffffffffffffffffffffff1681525060008086600019166000191681526020019081526020016000206000820151816000019060001916905560208201518160010155604082015181600201556060820151816003015560808201518160040160006101000a81548173ffffffffffffffffffffffffffffffffffffffff021916908373ffffffffffffffffffffffffffffffffffffffff16021790555090505050505050565b60006020528060005260406000206000915090508060000154908060010154908060020154908060030154908060040160009054906101000a900473ffffffffffffffffffffffffffffffffffffffff169050855600a165627a7a72305820f1436b57e8e29b22d481f9a59efc1791e2e8c6d6c766a4d296b14548decf23f50029",
  "source": "pragma solidity ^0.4.18;\n\ncontract Tickets {\n  struct Ticket {\n    bytes32 festival;\n    address owner;\n  }\n\n  struct Festival {\n    bytes32 name;\n    uint maxTickets;\n    uint soldTickets;\n    uint price;\n    address owner;\n  }\n\n  mapping(bytes32 => Festival) public festivals;\n  mapping(address => Ticket[]) public owners;\n\n  function createFestival(bytes32 name, uint maxTickets, uint price, address owner) public {\n    festivals[name] = Festival(name, maxTickets, 0, price, owner);\n  }\n\n  function Tickets() {\n    // constructor\n  }\n}\n",
  "sourcePath": "/home/lars/Documents/programming/crycket/eth/contracts/Tickets.sol",
  "compiler": {
    "name": "solc",
    "version": "0.4.18+commit.9cf6e910.Emscripten.clang"
  },
  "schemaVersion": "1.0.1",
  "updatedAt": "2018-01-14T22:10:42.514Z"
}